:0A03D40050617373576F72643A00B2
:1001C400E4F508F509F50AF50B1203A57BFF7A039C
:1001D40079D47D017F0112031D1200038F081200E0
:1001E400038F091200038F0A1200038F0BE50870B6
:1001F4000CE5097008E50A7004E50B60DCE508FB12
:100204007A007510017D017F0212035EE509FB7A15
:10021400007510017D027F0212035EE50AFB7A007D
:100224007510017D037F0212035EE50BFB7A0075F6
:0B02340010017D047F0212035E809E1B
:10039100EF4E600F7D027CEFDCFEDDFCEF1F70F0A5
:0303A1001E80EDCE
:0103A4002236
:0603B900C2A58F80D2A74F
:0803BF007F027EEFDEFEDFFC91
:0103C7002213
:0A03DE00C2A61203B9C2A70203BFB2
:10034000CFCDCFCECCCE12016F7C007D0A12016FD3
:04035000ED2430FF69
:0A035400D2A61203B9C2A70203BF2C
:10037B00AE07BE0104ED148006BE0209ED243F4416
:06038B0080FF1203DE22D8
:1003A5007F381203DE7F0C1203DE7F061203DE7F29
:0403B500010203DE60
:0A03E800AC0312037BAF04020354C0
:06031D008B0C8A0D890E15
:1003230012037BE4FDAB0CAA0DA90E8D827583002D
:0C033300120130FF60061203540D80E937
:01033F00229B
:0C02EA007F0AEA24FFFDE434FFFC7E00E4
:0802F6008E118F128C138D1480
:1002FE007F017E00E4FBEBC39514E5136480F87474
:0E030E008098500AAC11AD1212015D0B80E810
:01031C0022BE
:04035E008A0E8B0F69
:1003620012037BAA10EAD39400400D1202EAAC0EEB
:08037200AD0F1203401A80EDEB
:01037A002260
:10023F0012037BC3EA64809480400B7F2B1203541C
:10024F008A1A8B1B800E7F2D120354C3E49BF51B60
:10025F00E49AF51AAA19EAD39400400D1202EAACF7
:09026F001AAD1B1203401A80EDC8
:010278002263
:040279008A1E8B1F2F
:10027D0012037BAA20EAD3940040297F101202ECCE
:10028D00AC1EAD1FCFCDCFCECCCE12016FEF540F24
:10029D00FEC3940AEE5004243080022437FF12036B
:0402AD00541A80D18E
:0102B100222A
:0402B2008A238B24EC
:1002B60012037BAA25EAD394004028EA24FFFDE432
:1002C60034FFFC7F027E001202F6AC23AD24CFCDB4
:1002D600CFCECCCE12016FEF54012430FF1203545F
:0302E6001A80D2A9
:0102E90022F2
:10000300E4F50C7590FFC2932097137F14FE12033F
:10001300913097FD7F147E00120391750C01209699
:10002300147F147E001203913096FD7F147E00121C
:100033000391750C052095147F147E0012039130F3
:1000430095FD7F147E00120391750C097590FFC214
:10005300922097147F147E001203913097FD7F1432
:100063007E00120391750C022096147F147E0012F9
:1000730003913096FD7F147E00120391750C0620C8
:1000830095147F147E001203913095FD7F147E003A
:10009300120391E4F50C7590FFC2912097147F141D
:1000A3007E001203913097FD7F147E001203917539
:1000B3000C032096147F147E001203913096FD7F6B
:1000C300147E00120391750C072095147F147E0093
:1000D3001203913095FD7F147E00120391750C0B72
:1000E3007590FFC2902097147F147E001203913005
:1000F30097FD7F147E00120391750C042096147FE4
:10010300147E001203913096FD7F147E001203913A
:10011300750C082095147F147E001203913095FD11
:0C0123007F147E00120391750C0CAF0CD1
:01012F0022AD
:030000000203C830
:0C03C800787FE4F6D8FD7581250201C4A1
:10013000BB010CE58229F582E5833AF583E0225084
:1001400006E92582F8E622BBFE06E92582F8E222CE
:0D015000E58229F582E5833AF583E49322E8
:10015D00EF8DF0A4A8F0CF8CF0A428CE8DF0A42EB6
:02016D00FE2270
:10016F00BC000BBE0029EF8DF084FFADF022E4CC74
:10017F00F875F008EF2FFFEE33FEEC33FCEE9DEC3D
:10018F00984005FCEE9DFE0FD5F0E9E4CEFD22ED83
:10019F00F8F5F0EE8420D21CFEADF075F008EF2FCD
:1001AF00FFED33FD4007985006D5F0F222C398FDBE
:0501BF000FD5F0EA225B
:00000001FF
