:0C016D000A083F065B4F666D7D077F6F40
:10008F007D017C007F011200F21201557D027C0080
:10009F007F021200F21201557D037C007F031200D4
:1000AF00F21201557D047C007F041200F2120155FB
:1000BF007D057C007F051200F21201557D067C0044
:1000CF007F061200F21201557D077C007F07120098
:1000DF00F21201557D087C007F081200F2120155C3
:0300EF0002008F7D
:040155007F017E00A8
:10015900EF4E600F7D027CEFDCFEDDFCEF1F70F0DF
:030169001E80ED08
:01016C002270
:1000F200EF14B40800505490010775F003A4C583AF
:1001020025F0C5837302011F0201230201270201A8
:100112002B02012F02013702013F020147D2A480C4
:100122000ED2A48012D2A48016D2A4801AC2A4D263
:10013200A3D2A28016C2A4D2A3C2A2800EC2A4C21B
:10014200A3D2A28006C2A4C2A3C2A274082DF8E65A
:03015200F5802213
:03000000020003F8
:0C000300787FE4F6D8FD75811102004AF8
:10000F0002008FE493A3F8E493A34003F68001F278
:10001F0008DFF48029E493A3F85407240CC8C333F2
:10002F00C4540F4420C8834004F456800146F6DFC1
:10003F00E4800B010204081020408090016DE47EE3
:10004F00019360BCA3FF543F30E509541FFEE493B6
:10005F00A360010ECF54C025E060A840B8E493A37D
:10006F00FAE493A3F8E493A3C8C582C8CAC583CAA8
:10007F00F0A3C8C582C8CAC583CADFE9DEE780BE60
:010179000085
:00000001FF
