:0A03E00050617373576F72643A00A6
:1002FE00E4F5081203B17BFF7A0379E07D017F01FB
:10030E001203291200038F08E50860F7FB7A0075C7
:0B031E000D027D017F0212036A80E8DF
:10039D00EF4E600F7D027CEFDCFEDDFCEF1F70F099
:0303AD001E80EDC2
:0103B000222A
:0603C500C2A58F80D2A743
:0803CB007F027EEFDEFEDFFC85
:0103D3002207
:0A03EA00C2A61203C5C2A70203CB8E
:10034C00CFCDCFCECCCE1201CB7C007D0A1201CB0F
:04035C00ED2430FF5D
:0A036000D2A61203C5C2A70203CB08
:10038700AE07BE0104ED148006BE0209ED243F440A
:0603970080FF1203EA22C0
:1003B1007F381203EA7F0C1203EA7F061203EA7FF9
:0403C100010203EA48
:0A03F400AC03120387AF040203609C
:060329008B098A0A890B12
:10032F00120387E4FDAB09AA0AA90B8D827583001E
:0C033F0012018CFF60061203600D80E9C3
:01034B00228F
:0C02CB007F0AEA24FFFDE434FFFC7E0003
:0802D7008E0E8F0F8C108D11AB
:1002DF007F017E00E4FBEBC39511E5106480F87499
:0E02EF008098500AAC0EAD0F1201B90B80E8DA
:0102FD0022DE
:04036A008A0B8B0C63
:10036E00120387AA0DEAD39400400D1202CBAC0BF8
:08037E00AD0C12034C1A80EDD6
:010386002254
:10022000120387C3EA64809480400B7F2B12036023
:100230008A178B18800E7F2D120360C3E49BF5187C
:10024000E49AF517AA16EAD39400400D1202CBAC3B
:0902500017AD1812034C1A80EDE1
:010259002282
:04025A008A1B8B1C54
:10025E00120387AA1DEAD3940040297F101202CD03
:10026E00AC1BAD1CCFCDCFCECCCE1201CBEF540FED
:10027E00FEC3940AEE5004243080022437FF12038A
:04028E00601A80D1A1
:010292002249
:040293008A208B2111
:10029700120387AA22EAD394004028EA24FFFDE448
:1002A70034FFFC7F027E001202D7AC20AD21CFCDF8
:1002B700CFCECCCE1201CBEF54012430FF12036016
:0302C7001A80D2C8
:0102CA002211
:10000300E4F5097590FFC2932097137F14FE120342
:100013009D3097FD7F147E0012039D750901209684
:10002300147F147E0012039D3096FD7F147E001210
:10003300039D7509052095147F147E0012039D30DE
:1000430095FD7F147E0012039D7509092094147F8A
:10005300147E0012039D3094FD7F147E0012039DD5
:1000630075090D7590FFC2922097147F147E0012BC
:10007300039D3097FD7F147E0012039D75090220B6
:1000830096147F147E0012039D3096FD7F147E002C
:1000930012039D7509062095147F147E0012039D9B
:1000A3003095FD7F147E0012039D75090A20941478
:1000B3007F147E0012039D3094FD7F147E00120393
:1000C3009D75090E7590FFC2912097147F147E00D1
:1000D30012039D3097FD7F147E0012039D75090363
:1000E3002096147F147E0012039D3096FD7F147EAC
:1000F3000012039D7509072095147F147E001203D7
:100103009D3095FD7F147E0012039D75090B20948D
:10011300147F147E0012039D3094FD7F147E001221
:10012300039D75090F7590FFC2902097147F147E6D
:100133000012039D3097FD7F147E0012039D750905
:10014300042096147F147E0012039D3096FD7F14C5
:100153007E0012039D7509082095147F147E0012FA
:10016300039D3095FD7F147E0012039D75090C20BD
:1001730094147F147E0012039D3094FD7F147E003F
:0801830012039D750910AF097C
:01018B002251
:030000000203D424
:0C03D400787FE4F6D8FD7581220202FE5D
:10018C00BB010CE58229F582E5833AF583E0225028
:10019C0006E92582F8E622BBFE06E92582F8E22272
:0D01AC00E58229F582E5833AF583E493228C
:1001B900EF8DF0A4A8F0CF8CF0A428CE8DF0A42E5A
:0201C900FE2214
:1001CB00BC000BBE0029EF8DF084FFADF022E4CC18
:1001DB00F875F008EF2FFFEE33FEEC33FCEE9DECE1
:1001EB00984005FCEE9DFE0FD5F0E9E4CEFD22ED27
:1001FB00F8F5F0EE8420D21CFEADF075F008EF2F71
:10020B00FFED33FD4007985006D5F0F222C398FD61
:05021B000FD5F0EA22FE
:00000001FF
